:0A017400C0F9A4B0999282F88090BF
:040144007F017E00B9
:10014800E4FDFCC3ED9FEC9E5015E4FBFA0BBB00ED
:0F015800010AEB647B4A70F50DBD00010C80E4D9
:010167002275
:100003008E0C8F0D7C037DE81200A274742FF58291
:1000130074013EF583E493F5B0C2A0120144D2A06B
:10002300AE0CAF0D7C037DE81200A28C0C8D0DAEDF
:100033000CAF0D7C007D641200A274742FF58274E2
:10004300013EF583E493F5B0C2A1120144D2A1AEFF
:100053000CAF0D7C007D641200A28C0C8D0DAE0CD8
:10006300AF0D7C007D0A1200A274742FF582740117
:100073003EF583E493F5B0C2A2120144D2A2AE0CC2
:10008300AF0D7C007D0A1200A274742DF5827401F9
:0F0093003CF583E493F5B0C2A3120144D2A3223B
:1000F700E4F508F509F50AF50BF508F509E4F50A3D
:10010700F50BAF09AE08120003E5096492450870C4
:1001170009AF09AE0812000380F7050BE50B700263
:10012700050AC39401E50A940040D70509E509705B
:0C013700020508C39493E508940040C141
:010143002299
:0300000002016892
:0C016800787FE4F6D8FD75810D0200F7E9
:1000A200BC000BBE0029EF8DF084FFADF022E4CC42
:1000B200F875F008EF2FFFEE33FEEC33FCEE9DEC0B
:1000C200984005FCEE9DFE0FD5F0E9E4CEFD22ED51
:1000D200F8F5F0EE8420D21CFEADF075F008EF2F9B
:1000E200FFED33FD4007985006D5F0F222C398FD8C
:0500F2000FD5F0EA2229
:00000001FF
