:0B01630049204C4F564520594F5500D5
:10011A001200727FE01201487BFF7A0179637D0247
:07012A007F021200E180FEDC
:1000C100E4FDFCC3ED9FEC9E5015E4FBFA0BBB0075
:0F00D100010AEB647B4A70F50DBD00010C80E461
:0100E00022FD
:020131008B0F32
:10013300BF01047F8080027FC0EF2D14FF120100F6
:05014300AF0F020148AE
:10010000C2A08FB0C2A1D2A1EFD3940250047F024B
:0A01100080027F017E001200C12270
:100072007F301201007F057E001200C17F30120125
:10008200007F017E001200C17F301201007F381212
:0C00920001007F011201007F0C02010040
:100003007F301201007F057E001200C17F30120194
:10001300007F017E001200C17F307E001200C17F8D
:10002300301201007F301201007FF0120100E4FF63
:100033001201007F80120100E4FF1201007F100211
:020043000100BA
:0F014800D2A08FB0C2A1D2A17F017E000200C160
:06009E008B0B8A0C890D9A
:1000A400E4F50EAB0BAA0CA90D850E827583001224
:0C00B4000045FF6007120148050E80E7C0
:0100C000221D
:0600E1008B088A09890A60
:1000E700BF01047F8080027FC0EF2D14FF12010043
:0900F700AB08AA09A90A02009E47
:03000000020157A3
:0C015700787FE4F6D8FD75810F02011AD4
:10004500BB010CE58229F582E5833AF583E0225070
:1000550006E92582F8E622BBFE06E92582F8E222BA
:0D006500E58229F582E5833AF583E49322D4
:00000001FF
