:0F00680012005412009050FB12008B8F9080F406
:10005400C29FD29E53890F438920758DFAD28ED2C6
:0400640099D29C226F
:080083003099FDC2998F99220A
:060030008B088A09890A11
:10003600AB08AA09A90AAF0BEF3395E08F82F583C7
:0D004600120003FF6007120083050B80E32A
:01005300228A
:03009000A2982211
:05008B00C298AF9922AC
:0300000002007784
:0C007700787FE4F6D8FD75810B0200686C
:10000300BB010CE58229F582E5833AF583E02250B2
:1000130006E92582F8E622BBFE06E92582F8E222FC
:0D002300E58229F582E5833AF583E4932216
:00000001FF
