:10006900E4F5097F0A7E001200493090090509E587
:0600790009C3943240EDC2
:01007F00225E
:10000300E4F580E4F5086380FF1200690508E5085C
:10001300C3940840F1758001E4F508E58025E0F517
:10002300801200690508E508C3940840EEE4F5086A
:10003300E508C3940850CCE580C3134480F58012CF
:060043000069050880EAD7
:10004900E4FDFCC3ED9FEC9E5015E4FBFA0BBB00ED
:0F005900010AEB647B4A70F50DBD00010C80E4D9
:010068002275
:030000000200807B
:0C008000787FE4F6D8FD758109020003CA
:00000001FF
