:10006B00E4FDFCC3ED9FEC9E5015E4FBFA0BBB00CB
:0F007B00010AEB647B4A70F50DBD00010C80E4B7
:01008A002253
:10004900E4F5097F0A7E0012006B20900B7F147E75
:100059000012006B209001220509E509C394324082
:01006900E2B4
:01006A002273
:10000300E4F5A0E4F50863A0FF1200490508E5083C
:10001300C3940840F175A001E4F508E5A025E0F5D7
:10002300A01200490508E508C3940840EEE4F5086A
:10003300E508C3940850CCE5A0C3134480F5A0128F
:060043000049050880EAF7
:0300000002008B70
:0C008B00787FE4F6D8FD758109020003BF
:00000001FF
