:0A018E00C0F9A4B0999282F88090A5
:100003008E0C8F0D7C277D101200E5748E2FF582E8
:1000130074013EF583E493F580C2A07F017E001254
:100023000162D2A0AE0CAF0D7C277D101200E58CCF
:100033000C8D0DAE0CAF0D7C037DE81200E5748EC4
:100043002FF58274013EF583E493F580C2A17F010D
:100053007E00120162D2A1AE0CAF0D7C037DE812CB
:1000630000E58C0C8D0DAE0CAF0D7C007D64120091
:10007300E5748E2FF58274013EF583E493F580C217
:10008300A27F017E00120162D2A2AE0CAF0D7C00F2
:100093007D641200E58C0C8D0DAE0CAF0D7C007DE4
:1000A3000A1200E5748E2FF58274013EF583E49302
:1000B300F580C2A37F017E00120162D2A3AE0CAF12
:1000C3000D7C007D0A1200E5748E2DF58274013CCF
:1000D300F583E493F580C2A47F017E00120162D20E
:0200E300A42255
:10013A005389F0438905D28C858C08858A09750A0A
:10014A000085080BE50B750B00F50AE509420BAFB4
:08015A000BAE0A12000380E065
:10016200E4FDFCC3ED9FEC9E5015E4FBFA0BBB00D3
:0F017200010AEB647B4A70F50DBD00010C80E4BF
:01018100225B
:0300000002018278
:0C018200787FE4F6D8FD75810D02013A8B
:1000E500BC000BBE0029EF8DF084FFADF022E4CCFF
:1000F500F875F008EF2FFFEE33FEEC33FCEE9DECC8
:10010500984005FCEE9DFE0FD5F0E9E4CEFD22ED0D
:10011500F8F5F0EE8420D21CFEADF075F008EF2F57
:10012500FFED33FD4007985006D5F0F222C398FD48
:050135000FD5F0EA22E5
:00000001FF
