:10011D00ED4C7005C28CC2A022ED64644C7005C21A
:10012D008CD2A022D2A0538980438901D2A9D2AF0B
:10013D008E0E8F0F1200F0E47B64FAF9F812004A6C
:10014D008E0A8F0BC3E50F950BF509E50E950AF594
:10015D0008AB07AA06E4C39BFFE49AFE7401940062
:10016D00FDE49400FC78081200DC8F10E4C39BFFC3
:10017D00E48F11AE08AF09AB07AA06C39BFFE49A43
:10018D00FE74019400FDE49400FC78081200DC8FED
:0E019D000CE4C39BFF8F0D85108C85118A2208
:03000300D28C227A
:03000600C28C2287
:1001AB00E4F512E512FD7C007F107E2712011D1273
:0D01BB0000030512E512D3946440E880E3D0
:03000B000201C827
:1001C800B2A020A007850C8C850D8A3285108C85FD
:0301D800118A3257
:030000000201DB1F
:0C01DB00787FE4F6D8FD7581120201ABBC
:10000E0075F008758200EF2FFFEE33FECD33CDCCA9
:10001E0033CCC58233C5829BED9AEC99E58298402C
:10002E000CF582EE9BFEED9AFDEC99FC0FD5F0D609
:10003E00E4CEFBE4CDFAE4CCF9A88222B800C1B933
:10004E000059BA002DEC8BF084CFCECDFCE5F0CB71
:10005E00F97818EF2FFFEE33FEED33FDEC33FCEBAA
:10006E0033FB10D703994004EB99FB0FD8E5E4F965
:10007E00FA227818EF2FFFEE33FEED33FDEC33FC52
:10008E00C933C910D7059BE99A4007EC9BFCE99A46
:10009E00F90FD8E0E4C9FAE4CCFB2275F010EF2F8B
:1000AE00FFEE33FEED33FDCC33CCC833C810D7078B
:1000BE009BEC9AE899400AED9BFDEC9AFCE899F8C6
:0E00CE000FD5F0DAE4CDFBE4CCFAE4C8F92259
:1000DC00E86010ECA2E713FCED13FDEE13FEEF133A
:0400EC00FFD8F02227
:1000F000EC8EF0A4CCC5F0CCCDF8EFA4CEC5F02D9D
:10010000FDE43CFCE8A42EC8C5F03DFDE43CFCEF5A
:0D011000A4FFE5F028FEE43DFDE43CFC22E8
:00000001FF
