:0D0173004E6F726D616C2053706565640005
:050188000310FF0173EC
:06008F008B088A09890AB2
:10009500AB08AA09A90A850B827583001200EE60D8
:1000A5001A3099FDC299AB08AA09A90A850B827570
:0B00B50083001200EEF599050B80D5CA
:0100C000221D
:1000C10053890F438920758DFA759850D299D28E34
:1000D100E4FFAB10AA11A9128F827583001200EE02
:0D00E100F5993099FDC2990FBF0CE780E33F
:10015F00C29FD29E53890F438920758DFAD28ED2BA
:04016F0099D29C2263
:080180003099FDC2998F99220C
:06011B008B0C8A0D890E19
:10012100AB0CAA0DA90EAF0FEF3395E08F82F583CB
:0D0131001200EEFF6007120180050F80E351
:01013E00229E
:03019300A298220D
:05018E00C298AF9922A8
:10013F00E4FDFCC3ED9FEC9E5015E4FBFA0BBB00F6
:0F014F00010AEB647B4A70F50DBD00010C80E4E2
:01015E00227E
:03000000020003F8
:0C000300787FE4F6D8FD75811202004AF7
:1000EE00BB010CE58229F582E5833AF583E02250C7
:1000FE0006E92582F8E622BBFE06E92582F8E22211
:0D010E00E58229F582E5833AF583E493222A
:10000F000200C1E493A3F8E493A34003F68001F246
:10001F0008DFF48029E493A3F85407240CC8C333F2
:10002F00C4540F4420C8834004F456800146F6DFC1
:10003F00E4800B0102040810204080900188E47EC8
:10004F00019360BCA3FF543F30E509541FFEE493B6
:10005F00A360010ECF54C025E060A840B8E493A37D
:10006F00FAE493A3F8E493A3C8C582C8CAC583CAA8
:10007F00F0A3C8C582C8CAC583CADFE9DEE780BE60
:01018D000071
:00000001FF
