:06006500F5A07FF47E010E
:10006B00E4FDFCC3ED9FEC9E5015E4FBFA0BBB00CB
:0F007B00010AEB647B4A70F50DBD00010C80E4B7
:01008A002253
:1000030075088075A0FFE4F963A0FF12006709B9C2
:1000130005F675A001120067E4F9E5A025E01200DA
:100023006509B907F5E4F9E5A0C31312006509B939
:1000330007F5E4F9E508A2E713F508120067850858
:10004300A012006B09B907EC75A001120067E4F96F
:10005300E9C3940750ADE5A025E04401120065090A
:0200630080EE2D
:0300000002008B70
:0C008B00787FE4F6D8FD758108020003C0
:00000001FF
