:100060000E11131519110E1F040404140C041F089B
:10007000040201110E0E11010601110E021F1208D9
:100080000402011E0101011E101F0E11111E10118C
:100090000E0404040201011F0E11110E11110E0EA7
:0600A00001010F11110E19
:10000300E4F50AE4F509E4F508E50A75F007A42424
:1000130060F582E43400F583E5822508F582E43552
:1000230083F583E493F580AF087401A80708800281
:10003300C333D8FCF5B07F017E001200A6E4F5B00F
:100043000508E508C3940740C00509E509C3948E74
:0D00530040B4050AE50AC3940A40A880A342
:1000A600E4FDFCC3ED9FEC9E5015E4FBFA0BBB0090
:0F00B600010AEB647B4A70F50DBD00010C80E47C
:0100C5002218
:030000000200C635
:0C00C600787FE4F6D8FD75810A02000383
:00000001FF
