:100003007509807580FFE4F5086380FF7FF47E0146
:100013001200A90508E508C3940540ED7580017F2A
:10002300F47E011200A9E4F508E58025E0F5807F60
:10003300F47E011200A90508E508C3940740EAE429
:10004300F508E580C313F5807FF47E011200A9054E
:1000530008E508C3940740EAE4F508E509A2E713B5
:10006300F5097FF47E011200A98509807FF47E01E2
:100073001200A90508E508C3940740DF7580017FD6
:10008300F47E011200A9E4F508E508C394074003D0
:10009300020006E58025E04401F5807FF47E01122D
:0600A30000A9050880E33E
:1000A900E4FDFCC3ED9FEC9E5015E4FBFA0BBB008D
:0F00B900010AEB647B4A70F50DBD00010C80E479
:0100C8002215
:030000000200C932
:0C00C900787FE4F6D8FD75810902000381
:00000001FF
