:0A02C600C0F9A4B0999282F880906C
:040296007F017E0066
:10029A00E4FDFCC3ED9FEC9E5015E4FBFA0BBB009A
:0F02AA00010AEB647B4A70F50DBD00010C80E486
:0102B9002222
:10000300E4F50BF50AF509F508F50FF50EF50DF511
:100013000CF513F512F511F510E4F517F516F515B2
:10002300F514E47FA6FEFDFCAB17AA16A915A814C8
:10003300C31202854003020138E47B0AFAF9F8AFE0
:100043000BAE0AAD09AC081201F374C62FF5827426
:10005300023EF583E493F580C2A0120296D2A0E497
:100063007B0AFAF9F8AF0BAE0AAD09AC081201F33B
:1000730074C62BF58274023AF583E493F580C2A12A
:10008300120296D2A1E47B0AFAF9F8AF0FAE0EADD5
:100093000DAC0C1201F374C62FF58274023EF58386
:1000A300E493F590C2A2120296D2A2E47B0AFAF973
:1000B300F8AF0FAE0EAD0DAC0C1201F374C62BF5F9
:1000C3008274023AF583E493F590C2A3120296D2A6
:1000D300A3E47B0AFAF9F8AF13AE12AD11AC101218
:1000E30001F374C62FF58274023EF583E493F5B0F1
:1000F300C2A4120296D2A4E47B0AFAF9F8AF13AEB3
:1001030012AD11AC101201F374C62BF58274023ACE
:10011300F583E493F5B0C2A5120296D2A5E51724A0
:1001230001F517E43516F516E43515F515E4351420
:10013300F514020025E5132401F513E43512F51235
:10014300E43511F511E43510F510E47F3CFEFDFCB8
:10015300AB13AA12A911A810C3120285701EE50FD2
:100163002401F50FE4350EF50EE4350DF50DE435F8
:100173000CF50CE4F513F512F511F510E47F3CFED4
:10018300FDFCAB0FAA0EA90DA80CC31202856003D8
:1001930002001CE50B2401F50BE4350AF50AE435EE
:1001A30009F509E43508F508E4F50FF50EF50DF545
:0401B3000C02001C1E
:030000000202BA3F
:0C02BA00787FE4F6D8FD75811702000380
:1001B70075F008758200EF2FFFEE33FECD33CDCCFF
:1001C70033CCC58233C5829BED9AEC99E582984082
:1001D7000CF582EE9BFEED9AFDEC99FC0FD5F0D65F
:1001E700E4CEFBE4CDFAE4CCF9A88222B800C1B989
:1001F7000059BA002DEC8BF084CFCECDFCE5F0CBC7
:10020700F97818EF2FFFEE33FEED33FDEC33FCEBFF
:1002170033FB10D703994004EB99FB0FD8E5E4F9BA
:10022700FA227818EF2FFFEE33FEED33FDEC33FCA7
:10023700C933C910D7059BE99A4007EC9BFCE99A9B
:10024700F90FD8E0E4C9FAE4CCFB2275F010EF2FE0
:10025700FFEE33FEED33FDCC33CCC833C810D707E0
:100267009BEC9AE899400AED9BFDEC9AFCE899F81B
:0E0277000FD5F0DAE4CDFBE4CCFAE4C8F922AE
:10028500EB9FF5F0EA9E42F0E99D42F0E89C45F0CF
:010295002246
:00000001FF
