:1000A0004B69207475207468756F6E67206E686187
:0800B000702076616F3A200018
:100030001200B87BFF7A0079A012005C1200E25037
:10004000FB1200DD8F0874602508F5087BFF7A003D
:0C00500079A012005CAF081200D580D728
:10008000E4FDFCC3ED9FEC9E5015E4FBFA0BBB00B6
:0F009000010AEB647B4A70F50DBD00010C80E4A2
:01009F00223E
:1000B800C29FD29E758920758DFDD28ED299D29C11
:0100C8002215
:0800D5003099FDC2998F9922B8
:06005C008B098A0A890BE2
:10006200AB09AA0AA90BAF0CEF3395E08F82F58397
:0D007200120003FF60071200D5050C80E3AB
:01007F00225E
:0300E200A29822BF
:0500DD00C298AF99225A
:030000000200C932
:0C00C900787FE4F6D8FD75810C02003051
:10000300BB010CE58229F582E5833AF583E02250B2
:1000130006E92582F8E622BBFE06E92582F8E222FC
:0D002300E58229F582E5833AF583E4932216
:00000001FF
